:020000040800F2
:100000000000022095340008B10B0008B30B000873
:10001000B50B0008B70B0008B90B00080000000082
:10002000000000000000000000000000BB0B000802
:10003000BD0B000800000000BF0B0008C10B00084A
:10004000E5340008E5340008E5340008E53400082C
:10005000E5340008E5340008E5340008E53400081C
:10006000E5340008E5340008E5340008C90B000851
:10007000D90B0008E5340008E5340008E534000831
:10008000E5340008E5340008E90B0008E534000811
:10009000E5340008E5340008E5340008E5340008DC
:1000A000E5340008E5340008E5340008E5340008CC
:1000B000E5340008E5340008E5340008E5340008BC
:1000C000E5340008E5340008E5340008E5340008AC
:1000D000E5340008E5340008E5340008E53400089C
:1000E000E5340008E5340008E5340008E53400088C
:1000F000E5340008E5340008E5340008010C000888
:10010000E5340008E5340008E5340008E53400086B
:10011000E5340008E5340008E5340008E53400085B
:10012000E5340008110C0008E5340008E534000847
:10013000E5340008E5340008E5340008E53400083B
:10014000E5340008E5340008E5340008000000004C
:10015000000000000000000000000000000000009F
:10016000000000000000000000000000E53400086E
:10017000E5340008E5340008E5340008E5340008FB
:10018000E5340008E5340008E5340008E5340008EB
:10019000E534000800000000E5340008E5340008FC
:1001A000E5340008E5340008E5340008E5340008CB
:1001B000E5340008E5340008E5340008E5340008BB
:1001C000E5340008E5340008E5340008E5340008AB
:0801D000E5340008E5340008E5
:1001D80010B5054C237833B9044B13B10448AFF379
:1001E80000800123237010BD0C00002000000000D7
:1001F8004035000808B5034B1BB103490348AFF36A
:10020800008008BD000000001000002040350008F4
:1002180072B6FEE700B595B03822002106A803F0B3
:1002280083F90023019302930393049305934FF4F6
:10023800007003F027F8012306934FF480330793E7
:1002480002230D9303220E920F934B2210921193C7
:100258001293139306A802F047F880B90F2301936D
:1002680003230293002303930493059304210DEBC6
:10027800010002F0EFFA20B915B05DF804FBFFF7B2
:10028800C7FFFFF7C5FF000008B501F0DFFFFFF764
:10029800C1FF00F019F800F04BFC00F077F800F00F
:1002A80053F900F003FA064801F0A2FC054801F0F2
:1002B8009FFC00F0ADFB00F0BBFB00F0C9FBF8E7CA
:1002C8006C000020D8000020F0B58BB00024059405
:1002D8000694079408940994294BDA6C42F00402B6
:1002E800DA64DA6C02F004020092009ADA6C42F0E6
:1002F8002002DA64DA6C02F020020192019ADA6CC8
:1003080042F00102DA64DA6C02F001020292029A07
:10031800DA6C42F00202DA64DA6C02F0020203924A
:10032800039ADA6C42F01002DA64DB6C03F0100313
:100338000493049B134F01224FF40051384602F0F6
:100348002BFE114D01224FF40071284602F024FEC5
:100358004FF400530593012606960794089405A9BF
:10036800384602F02FFD4FF4007305930696079464
:10037800089405A9284602F025FD0BB0F0BD00BF82
:1003880000100240000800480010004810B592B064
:1003980000240F9410941194089409940A940B94CF
:1003A8000C940D940E9420222146684603F0BCF864
:1003B8005B484FF0A04303604FF4403343608460D0
:1003C800C460046101234361082282610477437792
:1003D800026280F82440C462046380F83830C46341
:1003E80080F8404000F034FC002877D100230F93B8
:1003F8000FA94B4801F018FE002872D1494B089309
:100408004FF40003099301238DF82C3040F61E4366
:100418000C9340F6B1130D9300230E9308A940489E
:1004280001F0CCF900285FD13F4B009306230193DC
:10043800002302937F2203920422049205936946C3
:10044800374800F01FFF002851D1384B00930C2388
:1004580001936946324800F015FF00284AD1344B11
:1004680000931223019369462D4800F00BFF0028E2
:1004780043D1304B0093182301936946284800F074
:1004880001FF00283CD12C4B00934FF4807301935B
:100498006946234800F0F6FE002834D1274B009324
:1004A8004FF48373019369461D4800F0EBFE68BB67
:1004B800234B00934FF4867301936946184800F064
:1004C800E1FE30BB1F4B00934FF4897301936946DB
:1004D800134800F0D7FEF8B912B010BDFFF798FE28
:1004E80084E7FFF795FE89E7FFF792FE9CE7FFF7A1
:1004F8008FFEAAE7FFF78CFEB1E7FFF789FEB8E7A2
:10050800FFF786FEBFE7FFF783FEC7E7FFF780FE2A
:10051800CEE7FFF77DFED5E7FFF77AFEDCE700BF01
:100528006C0000200000C07D400020198000501D94
:10053800000180210002B025020030040400600898
:100548000800900C1000C01010B590B00024099459
:100558000A940B940C940D940E940F942022214627
:1005680001A802F0E1FF4848484B03604FF44033CC
:1005780043608460C460046101234361082282618E
:10058800047743770622026280F82440C462046339
:1005980080F83830C46380F8404000F059FB0028E8
:1005A80059D13B4B09934FF400030A9301238DF86B
:1005B800303040F6B8330D934FF4FA630E930023AE
:1005C8000F9309A9304801F0F9F8002846D1314BBA
:1005D800019306230293002303937F2204920422AB
:1005E800059206930DEB0201274800F04BFE002808
:1005F80037D1294B01930C23029301A9224800F01B
:1006080041FE002830D1254B01931223029301A902
:100618001D4800F037FE50BB214B0193182302936D
:1006280001A9194800F02EFE20BB1E4B01934FF480
:100638008073029301A9144800F024FEE8B91A4B0C
:1006480001934FF48373029301A90F4800F01AFE37
:10065800B0B910B010BDFFF7DBFDA2E7FFF7D8FD7A
:10066800B5E7FFF7D5FDC4E7FFF7D2FDCBE7FFF706
:10067800CFFDD1E7FFF7CCFDD7E7FFF7C9FDDEE7F0
:10068800FFF7C6FDE5E700BFD800002000010050D5
:100698000000C07D00005247002090360800900CF2
:1006A8001000C0102000F0140008302E10B58CB0D7
:1006B800002409940A940B942022214601A802F0F0
:1006C80033FF2648264B03604FF440334360846071
:1006D800C46004610123436108228261047743777F
:1006E8000223036280F82440C462046380F838401F
:1006F800C46380F8404000F0ABFA10BB00230993B4
:1007080009A9164801F090FCF0B9164B019306238D
:100718000293002303937F220492042205920693F6
:100728000DEB02010D4800F0ADFD80B90E4B0193B1
:100738000C23029301A9094800F0A4FD50B90CB09C
:1007480010BDFFF765FDD9E7FFF762FDDDE7FFF7AD
:100758005FFDEBE7FFF75CFDF1E700BF4401002018
:10076800000400500010603202003004F0B5A3B05D
:10077800044600211D911E911F9120912191542220
:1007880008A802F0D1FE2368B3F1A04F08D0944A1C
:1007980093426DD0934A934200F0D38023B0F0BDCA
:1007A8004FF4004308934FF00053199308A802F040
:1007B8004DF900284BD18C4A136801331360012B83
:1007C80048D08A4BDA6C42F00402DA64DA6C02F040
:1007D80004020192019ADA6C42F00102DA64DB6CDD
:1007E80003F001030293029B0F271D9703261E9611
:1007F80000251F951DA97E4802F0E4FA1D971E9654
:100808001F951DA94FF0904002F0DCFA79487A4B09
:100818000360052343608560C560802303614FF44E
:10082800007343614FF4006383612023C361056251
:1008380002F010FCC8B96F4B63659C620022114638
:10084800122002F0BFFD122002F0F4FDA6E7FFF728
:10085800DFFCB0E7654BDA6C42F40052DA64DB6C1B
:1008680003F400530093009BABE7FFF7D1FCE2E7EA
:100878004FF4004308934FF00053199308A802F06F
:10088800E5F800284CD1584A136801331360012B4E
:1008980049D0564BDA6C42F00102DA64DA6C02F0A5
:1008A80001020492049ADA6C42F00402DA64DB6C06
:1008B80003F004030593059BF0231D9303261E965E
:1008C80000251F951DA94FF0904002F07BFA3023B8
:1008D8001D931E961F951DA9454802F073FA4748B7
:1008E800474B0360242343608560C5608023036110
:1008F8004FF4007343614FF4006383612023C361A5
:10090800056202F0A7FBC8B93C4B63659C620022F4
:100918001146122002F056FD122002F08BFD3DE731
:10092800FFF776FCAFE7314BDA6C42F40052DA6439
:10093800DB6C03F400530393039BAAE7FFF768FCFF
:10094800E2E74FF4803308934FF000431A9308A866
:1009580002F07CF800283CD1244BDA6C42F4804247
:10096800DA64DA6C02F480420692069ADA6C42F093
:100978000202DA64DB6C03F002030793079B03238C
:100988001D931E9300251F951DA91E4802F01AFAF3
:100998001D481E4B0360252343608560C560802386
:1009A80003614FF4007343614FF4006383612023B4
:1009B800C361056202F04EFB70B9134B63659C621C
:1009C800002211462F2002F0FDFC2F2002F032FDFC
:1009D800E4E6FFF71DFCBFE7FFF71AFCEDE700BFF1
:1009E8000001005000040050680000200010024080
:1009F80000080048B0010020080002401002002052
:100A08001C00024000040048700200201C04024040
:100A180010B5054C7F21204601F0B2FA082203499F
:100A2800204601F0C7F910BD6C0000202800002006
:100A380010B5054C7F21204601F0A2FA0622034991
:100A4800204601F0B7F910BDD80000204C00002066
:100A580008B5274B1B68032B45D8DFE803F00212C3
:100A6800243401224FF40071224802F095FA012241
:100A78004FF40051204802F08FFA1D4B00221A60F3
:100A880008BD00224FF400711A4802F085FA0022CE
:100A98004FF40051184802F07FFA0023174A1360F8
:100AA800134A1360ECE700224FF40071114802F07A
:100AB80073FA00224FF400510F4802F06DFA0C4B04
:100AC80000221A60DCE700224FF40071094802F0A6
:100AD80063FA00224FF40051074802F05DFA044B14
:100AE80000221A60CCE7024B00221A60C8E700BF58
:100AF800480000200010004800080048640000205A
:100B0800084B984206D0084B984207D0074B002262
:100B18001A607047054B01221A607047034B022286
:100B28001A6070476C000020D800002048000020A0
:100B380000B585B01B4B9A6C42F004029A649A6C1B
:100B480002F004020192019A9A6C42F001029A643E
:100B58009A6C02F001020292029A9A6C42F0020226
:100B68009A649B6C03F002030393039B0022012108
:100B78000B2002F027FC0B2002F05CFC0022012174
:100B88000C2002F01FFC0C2002F054FC0022012172
:100B9800392002F017FC392002F04CFC05B05DF852
:100BA80004FB00BF00100240FEE7FEE7FEE7FEE799
:100BB800FEE770477047704708B501F057FB08BD5E
:100BC80008B5024802F0FCFA08BD00BFB0010020D9
:100BD80008B5024802F0F4FA08BD00BF1002002070
:100BE80008B5034800F08AF9024800F087F908BD03
:100BF8006C000020D800002008B5024800F07EF9FB
:100C080008BD00BF4401002008B5024802F0D8FA28
:100C180008BD00BF7002002000B583B00B4B1A6EF0
:100C280042F001021A661A6E02F001020092009A5E
:100C38009A6D42F080529A659B6D03F08053019340
:100C4800019B02F0A5FB03B05DF804FB0010024015
:100C580030B583B000230193002800F032810446A8
:100C6800C36D13B323689A6812F0005F05D09A68C1
:100C780022F0204222F03F029A602268936813F023
:100C8800805F1FD1936823F0104323F03F0343F0A4
:100C9800805393608C4B1B689B098C4AA2FB0323EF
:100CA8009B0901335B00019309E0FFF75FFD002317
:100CB800236684F85830D5E7019B013B0193019BDB
:100CC800002BF9D12268936813F0805F3DD1E36D62
:100CD80043F01003E365236E43F00103236601200C
:100CE800936813F0040300D00123E16D11F0100F95
:100CF80040F0E080002B40F0DD80E36D23F4817349
:100D080043F00203E365936813F0010F3ED1B2F19B
:100D1800A04F1CD06E4B9A4219D06E4B996811F0B7
:100D2800010100D001216C4B9B6813F0010300D036
:100D380001230B436949896811F0010100D00121A1
:100D48000B430CBF0123002312E00020C8E74FF03B
:100D5800A0439B6813F0010300D001235C49896814
:100D680011F0010100D001210B430CBF0123002326
:100D780063B1B2F1A04F6CD0554B9A4267D0584935
:100D880063688A6822F47C1213438B60627FE36B8A
:100D980043EA4233E2681343A268134394F82420D9
:100DA80043EA0243012A56D0E26A22B102F4787279
:100DB800216B0A4313432168CD684A4A2A401343EA
:100DC800CB602268136923F04063616B0B431361A6
:100DD8002268936813F0080300D0012343BB217FE6
:100DE80094F838305B0043EA8131D36823F48043B8
:100DF80023F002030B43D3602369002B30D0226811
:100E0800136943F4803313612268D2F8C03023F4A5
:100E18007F5323F03F0321690B43C2F8C03094F895
:100E28004030012B2BD02268136923F00103136192
:100E38006369012B35D02268136B23F00F0313630A
:100E4800E36D23F0030343F00103E36537E026492C
:100E580096E7254994E7A26A013A43EA4243A3E7A1
:100E68002268136923F4803313612268D2F8C030F2
:100E780023F47F5323F03F03C2F8C030CFE7216843
:100E88000B6923F4FF6323F00403626CA56C2A4307
:100E9800E56C2A43256D2A43134343F001030B6194
:100EA800C6E721680B6B23F00F03226A013A13434C
:100EB8000B63C5E7E36D43F01003E365012003B05E
:100EC80030BD0120FBE700BF08000020632D3E0570
:100ED80000010050000400500005005000060050BA
:100EE800000700500740F0FF0003005070477047AC
:100EF80008B5806AFFF7FBFF08BD7047F8B50446E0
:100F080003681E685F68B3F1A04F46D0974A9342C2
:100F180041D0974B9D6805F01F0516F0020F10D0C1
:100F280017F0020F0DD0E36D13F0100F03D1E36D2E
:100F380043F40063E365204601F074F82368022255
:100F48001A6016F0040F02D017F0040F05D116F03E
:100F5800080F55D017F0080F52D0E36D13F0100F9B
:100F680003D1E36D43F40073E3652368DA6812F490
:100F7800406F3FD17D4A934214D002F5806293427C
:100F88000DD01A46934210D07DB1052D0DD0092DF4
:100F98000BD0D2680AE0774BBCE7764BBAE7A2F5EC
:100FA8008072EFE74FF0A042ECE7DA6812F4005FD6
:100FB80020D11A6812F0080F1CD09A6812F0040F9A
:100FC80010D15A6822F00C025A60E36D23F4807342
:100FD800E365E36D13F4805F0CD1E36D43F0010327
:100FE800E36507E0E36D43F01003E365236E43F028
:100FF800010323662046FFF779FF23680C221A6055
:1010080016F0200F02D017F0200F05D116F0400F70
:1010180063D017F0400F60D0E36D13F0100F03D1C9
:10102800E36D43F40053E3652368DA6C12F4C07F80
:1010380016D10121DA6812F4406F13D101204B4A0E
:10104800934214D002F5806293420DD01A4693421F
:1010580010D07DB1062D0DD0072D0BD0D2680AE037
:101068000021E7E70020EAE7A2F58072EFE74FF0FA
:10107800A042ECE7DA6851B312F0007F03D030B336
:1010880012F4005F23D1196811F0400F1FD012F439
:10109800001F1CD19A6812F0080F10D15A6822F06C
:1010A80060025A60E36D23F48053E365E36D13F443
:1010B800807F0CD1E36D43F00103E36507E0E36D46
:1010C80043F01003E365236E43F0010323662046D3
:1010D80000F0A4FF236860221A6016F0800F02D087
:1010E80017F0800F36D116F4807F02D017F4807F76
:1010F80042D116F4007F02D017F4007F48D116F0D1
:10110800100F20D017F0100F1DD0E36B6BB1002D1E
:101118004ED02368B3F1A04F48D0144A934243D02D
:10112800134B9B6813F4604F0AD0E36D43F480635C
:10113800E365236E43F0020323662046FFF7DDFED6
:10114800236810221A6016F4806F02D017F4806F9B
:1011580034D1F8BDE36D43F48033E3652046FFF7EF
:10116800CFFC236880221A60BDE700BF0001005051
:101178000007005000030050E36D43F40033E365BB
:10118800204600F04DFF23684FF480721A60B0E7E4
:10119800E36D43F48023E365204600F042FF2368B3
:1011A8004FF400721A60AAE70C4BBAE70B4BB8E78A
:1011B8002368DB6813F0010FC2D0B6E7E36D43F490
:1011C8008043E365236E43F00803236623684FF4E6
:1011D80080621A60204600F022FFBAE70003005040
:1011E80008B50346806AC26D12F0500F30D1C36D46
:1011F80043F40073C36503681A6812F0080F14D02B
:10120800DA6812F4406F20D1DB6813F4005F1CD158
:10121800C36D23F48073C365C36D13F4805F14D169
:10122800C36D43F00103C3650FE0DB6813F0020FE1
:101238000BD1C36D23F48073C365C36D13F4805F52
:1012480003D1C36D43F00103C365FFF74FFE08BD2B
:10125800C26D12F0100F04D1426D526B18469047C0
:10126800F5E7FFF74AFEF2E708B5806AC36D43F079
:101278004003C365036E43F004030366FFF73DFEB6
:1012880008BD0000F0B583B00022019290F8582004
:10129800012A00F084820346012280F8582005685C
:1012A800A86810F0040F09D0DA6D42F02002DA6560
:1012B8000120002283F8582003B0F0BD4C68303577
:1012C800220A920002F00C02A85804F01F0E1F24F4
:1012D80004FA0EF420EA04000C68C4F3846C0CFAD7
:1012E8000EFC40EA0C00A8501868826812F004024C
:1012F80000D00122846814F0080400D00124002AD8
:1013080050D1002C4ED18F68B7F1004F00F08B8080
:101318000E681430720E920002F004028558C6F36B
:10132800045E4FF0070C0CFA0EFC25EA0C0C07FAC9
:101338000EF54CEA050585501868426922F000420E
:1013480042614D691868C268C2F3C102520005FAC9
:1013580002F20E69042E7ED0603050F82670AD4D32
:101368003D400F6807F0F8473A43154345F00045FC
:1013780040F826501A680E698869603252F826507B
:1013880025F08075284342F826001A680D69087F01
:1013980001285DD0603252F8250020F00070044327
:1013A80042F825401868826812F0010F17D10A68C0
:1013B800CD68D0F8B040C2F3120C24EA0C0405F052
:1013C800180C954D25FA0CF52A40C2F31202224357
:1013D800C0F8B020C868914A904200F0A4800A681A
:1013E8008F490A4200F0D5811968B1F1A04F00F089
:1013F8006E818C48814200F067818B48806800F0DC
:10140800E0748A4DAA4200F06481894DAA4200F036
:101418006081884DAA4200F08F81874DAA4200F072
:10142800A381002045E70D6814306A0E920002F08F
:1014380004028658C5F30455072707FA05F526EA76
:10144800050585501868426942F00042426178E714
:101458004FF000749EE7026E046EC4F384640A6859
:10146800C2F3120585BBC2F38462944234D01C686F
:10147800626E606EC0F384600A68C2F3120585BBB1
:10148800C2F38462904234D01C68A26EA06EC0F38E
:1014980084600A68C2F3120585BBC2F38462904275
:1014A80034D01C68E26EE06EC0F384600A68C2F350
:1014B800120585BBC2F3846290427FF473AFE26E7B
:1014C80022F00042E2666DE792FAA2F212B1B2FA95
:1014D80082F2CAE72022C8E7026E22F000420266C2
:1014E800C5E792FAA2F212B1B2FA82F2CAE7202252
:1014F800C8E7626E22F000426266C5E792FAA2F27D
:1015080012B1B2FA82F2CAE72022C8E7A26E22F02C
:101518000042A266C5E792FAA2F212B1B2FA82F2CA
:10152800CAE72022C8E71C680A68C2F31205002D22
:1015380038D1900E013000F01F0009288CBF002020
:10154800012000287AD0002D3BD1900E0130800672
:1015580000F0F840002D40D1960E013606F01F0726
:101568000126BE403043002D45D1920E013202F0D3
:101578001F0202EB420212050243886804F11406B6
:10158800550EAD0005F004057459C2F304524FF02E
:10159800070C0CFA02FC24EA0C0C90404CEA000000
:1015A80070511CE792FAA2F048B1B0FA80F001300D
:1015B80000F01F0009288CBF00200120C1E720206F
:1015C800F5E792FAA2F030B1B0FA80F00130800667
:1015D80000F0F840BEE72020F8E792FAA2F646B1FC
:1015E800B6FA86F6013606F01F06012707FA06F650
:1015F800B8E72026F6E792FAA2F242B1B2FA82F2EE
:10160800013202F01F0202EB42021205B4E7202267
:10161800F6E700BF00F0FF03FFFF070000007F4070
:10162800000008800001005000070050000021C39E
:101638001000C090000052C7000084CBCDB9900EB6
:101648000130800600F0F840FDB9960E013606F02C
:101658001F070126BE4030432DBB920E013202F017
:101668001F0202EB42021E3A120542F000720243C8
:1016780083E792FAA2F030B1B0FA80F00130800628
:1016880000F0F840E0E72020F8E792FAA2F646B129
:10169800B6FA86F6013606F01F06012707FA06F69F
:1016A800D9E72026F6E792FAA2F25AB1B2FA82F204
:1016B800013202F01F0202EB42021E3A120542F00A
:1016C8000072D4E72022F3E700F5007096E635486B
:1016D80094E610F4000F7FF49CAEB1F1A04F04D053
:1016E800314A914201D00020E3E5B1F1A04F19D071
:1016F8002E4A914214D02E4944F400048A6822F0FC
:10170800E07214438C602B4A126892092A49A1FBA3
:1017180002129209013202EB42029200019206E0A3
:101728002049E9E71F49E7E7019A013A0192019A3E
:10173800002AF9D10020BCE510F0807F7FF46DAE5F
:10174800B1F1A04F0ED0194A914209D0184944F07E
:1017580080748A6822F0E07214438C600020A8E547
:101768001049F4E70F49F2E710F4800F13D10F4A3C
:10177800914212D0B1F1A04F09D00D4844F4800233
:10178800816821F0E0710A438260002091E50548F4
:10179800F4E700208DE500208BE5002089E5022094
:1017A8008AE500BF00030050000600500001005009
:1017B8000007005008000020632D3E0590F85830BF
:1017C800012B00F0968130B5012380F85830046869
:1017D800A36813F0040300D00123A26812F00802E2
:1017E80000D00122002B40F01181002A40F00E8128
:1017F8000B68B24A934226D04A68B2F1A07F00F043
:10180800A28000F29980B2F5400F00F09C80B2F1FE
:10181800807F00F0CF80B2F5000F00F0CB800C3451
:10182800C3F3015203F0010505EBC50502EB850280
:1018380054F8225023F0024323F4601325EA0303EB
:1018480044F82230CEE04B68B3F1A07F51D01AD8CB
:10185800B3F5400F2AD0B3F1807F08D1E36823F0B5
:10186800FB4323F4800343F08073E3602AE0B3F57D
:10187800000F54D1E36823F0FB4323F4800343F4BF
:101888000003E3601EE0B3F1C07F3FD0B3F1E07F17
:1018980045D18A68E36823F0FB4323F4800302F010
:1018A800F84242F0E0721343E3600BE08A68E368B1
:1018B80023F0FB4323F4800302F0F84242F4400291
:1018C8001343E3600268136A23F4E0438C692343FB
:1018D8001362C36D23F48033C365036880221A60E2
:1018E8000B7B012B22D00268536823F080035360DE
:1018F8008CE08A68E36823F0FB4323F4800302F05A
:10190800F84242F0A0721343E360DBE7E36823F098
:10191800FB4323F4800343F0C073E360D2E7E3683A
:1019280023F0FB4323F48003E360CBE702685368AA
:1019380043F08003536069E0B2F1C07F3AD0B2F15E
:10194800E07F7FF46CAF5E4A93420DD08B68C3F39F
:1019580012021ABBC3F3846301229A40D4F8A4305C
:101968001343C4F8A4303DE08B68C3F312024AB9AC
:10197800C3F3846301229A40D4F8A0301343C4F817
:10198800A0302FE093FAA3F333B1B3FA83F303F053
:101998001F0301229A40EFE72023F8E793FAA3F305
:1019A80033B1B3FA83F303F01F0301229A40D5E75A
:1019B8002023F8E70C34C3F3015503F0010202EBCE
:1019C800C20205EB820554F8252023F0024C2CF4C2
:1019D800601C22EA0C0223F07E4323F4F003134335
:1019E80044F825300A68364B9A4249D0C36D23F42F
:1019F8008023C36503684FF400721A600B7B012BC8
:101A080055D00268536823F4007353600B682B4A5F
:101A1800934257D00568EA6802F01802182A61D084
:101A28000A69EC68C4F3C10ECEF1020E4FEA4E0EFD
:101A38000EF01E0E22FA0EFEEA6802F01802182AAC
:101A480054D04969EA68C2F3C102C2F102025200E5
:101A580002F01E02D140026802F1200C1B0D9B000F
:101A680003F00C035CF8032002F0F02241EA0E4177
:101A78000A434CF80320002380F85830184630BD3C
:101A8800C36D23F40033C36503684FF480721A6092
:101A98000B7B012B05D00268536823F480735360D5
:101AA800B4E70268536843F480735360AEE7026892
:101AB800536843F400735360A8E700BF0000C07D7B
:101AC800FFFF17000A690568EC68C4F3C10E4FEA06
:101AD8004E0E02FA0EFE4969EA68C2F3C1025200CC
:101AE8009140B8E70A694FEA820EA5E7496989007B
:101AF800B1E70220704700BF30B583B000230193DF
:101B080003689A6812F0010F63D104469968324A53
:101B1800114220D19A6822F0004222F03F0242F09E
:101B280001029A600368B3F1A04F20D02B4A934278
:101B38001BD02B4B9B6813F4000F20D0294B1B683C
:101B48009B09294AA2FB03239B09013303EB4303A7
:101B58009B00019310E0C36D43F01003C365036E4F
:101B680043F001030366012034E0204BE2E71F4BFA
:101B7800E0E7019B013B0193019B002BF9D100F0A9
:101B880081FB054623681A6812F0010F1FD19A6875
:101B980012F0010F07D19A6822F0004222F03F02AA
:101BA80042F001029A6000F06DFB431B022BE9D959
:101BB80023681B6813F0010FE4D1E36D43F01003B1
:101BC800E365236E43F001032366012002E0002051
:101BD80000E0002003B030BD3F000080000100504D
:101BE8000007005008000020632D3E050003005048
:101BF80038B504460368B3F1A04F00F082806A4A02
:101C080093427BD0694A956805F01F059B6813F0DD
:101C1800040F40F0C58094F85830012B00F0C280C2
:101C2800012384F858302046FFF766FF002840F06B
:101C3800B380E36D23F4706323F0010343F48073EE
:101C4800E3652368584A934260D002F58062934264
:101C580059D01A46934200D01DB9E26D22F4801281
:101C6800E265E26D12F4805F53D0226E22F0060224
:101C780022661C221A60002384F8583022685368B0
:101C880023F01C035360A369082B45D022685368CE
:101C980043F004035360E36B23B92268536843F0AD
:101CA800100353602368404A93423ED002F5806295
:101CB800934237D01A4693423AD0002D38D0052D9A
:101CC80036D0092D34D0E16D41F48011E165D26838
:101CD80012F0007F65D0E26D22F4405242F4805247
:101CE800E265A269082A4DD05A6822F040025A607B
:101CF8002268536843F02003536052E002F50072F3
:101D080081E72B4A7FE7A2F58072A3E74FF0A04254
:101D1800A0E700222266ACE72268536843F0080374
:101D28005360B8E7A2F58072C5E74FF0A042C2E75A
:101D3800DA6812F0007F11D0E26D22F4405242F4CA
:101D48008052E265A269082A12D05A6822F040023D
:101D58005A602268536843F02003536022689368EE
:101D680023F0004323F03F0343F00403936018E09B
:101D78005A6822F020025A602268536843F04003F0
:101D88005360EBE75A6822F020025A6022685368D1
:101D980043F04003536004E0002384F8583000E027
:101DA800022038BD0220FCE7000100500007005067
:101DB800000300502DE9F04104460F4690460068A4
:101DC800B0F1A04F21D0424B98421BD0414B9E68A6
:101DD80006F01F06856815F0040F74D194F8583082
:101DE800012B73D0012384F858303B4B98420ED016
:101DF8006EB1052E0BD0092E09D0002384F8583077
:101E0800012061E003F50073E1E7344BDFE720468A
:101E1800FFF772FE002852D1E36D23F4706323F0BC
:101E2800010343F48073E3652368294A934240D051
:101E380002F58062934239D01A46934200D01EB907
:101E4800E36D23F48013E365E36D13F4805F33D00F
:101E5800236E23F006032366636D214ADA62636DFD
:101E6800204A1A63636D204A5A6323681C221A6049
:101E7800002384F858302268536843F010035360F5
:101E88002268D36843F00103D360216843463A4689
:101E98004031606D01F04AF92268936823F00043ED
:101EA80023F03F0343F0040393600DE0A2F5807232
:101EB800C3E74FF0A042C0E700232366CCE7002326
:101EC80084F8583000E00220BDE8F0810220FBE7EA
:101ED80000010050000700500006005000030050A9
:101EE800E9110008F90E00087112000838B5044617
:101EF8000268936813F0020300D00123916811F07F
:101F0800010F39D0002B39D1936803F00D03012B51
:101F180009D0E36D43F01003E365236E43F001033A
:101F28002366012029E0936823F0004323F03F0350
:101F380043F002039360236803221A6000F0A2F9B9
:101F4800054623689B6813F0010F13D000F09AF937
:101F5800401B0228F5D923689B6813F0010FF0D0C5
:101F6800E36D43F01003E365236E43F0010323663A
:101F7800012002E0002000E0002038BD0020FCE73E
:101F880030B583B00023019390F85830012B41D02D
:101F980004460D46012380F85830FFF7A7FF80BBA1
:101FA800E36D23F4885323F0020343F00203E3654F
:101FB8002268936823F0404323F03F0305F08045EF
:101FC8002B4343F00043936023689B68002B06DB98
:101FD800E36D23F0030343F00103E36515E0019B80
:101FE80001330193019A0C4B9A42EDD9E36D23F02A
:101FF800120343F01003E365002384F858300120EE
:1020080006E0E36D43F01003E365002384F85830DD
:1020180003B030BD0220FBE701DE040070477047C3
:10202800704770477047000090F85820012A00F068
:10203800D68010B49DB00346012280F858200022B3
:10204800189219920068B0F1A04F47D0654A9042A3
:1020580047D000220192019A002A46D0926812F0D5
:10206800040200D00122846814F0040F40F0A78015
:10207800002A40F0A480B0F1A04F42D05A4A9042C2
:102088003CD05A4A086800285CD0906820F4604028
:102098004C6893F838C044EA4C3420439060186880
:1020A800B0F1A04F2FD0504CA0422CD04D4884689E
:1020B80014F0010400D001244D48806810F001009C
:1020C80000D0012020434B4CA46814F0010400D038
:1020D800012420430CBF0120002025E0424A019240
:1020E800B9E702F580720192B5E7DA6D42F0200295
:1020F800DA65002283F85820012068E002F50072B2
:10210800C0E73D4ABEE74FF0A040806810F00100EC
:1021180000D00120344CA46814F0010400D001243C
:1021280020430CBF01200020002854D0906820F4E0
:10213800716020F00F000C688968214308439060A3
:10214800002041E0916821F4604191601968B1F183
:10215800A04F1AD02448814217D02249886810F02D
:10216800010000D001202249896811F0010100D046
:10217800012101431F48806810F0010000D00120B0
:1021880001430CBF0121002110E04FF0A0418968F4
:1021980011F0010100D001211348806810F00100FE
:1021A80000D0012001430CBF01210021A9B1916891
:1021B80021F4716121F00F019160002004E0DA6DD3
:1021C80042F02002DA650120002283F858201DB071
:1021D8005DF8044B70470020F6E70020F4E7022082
:1021E800704700BF00040050000100500007005075
:1021F800000500500006005000030050104B1B68FB
:102208000BB90120704710B504464FF47A70B0FB43
:10221800F3F30C4A1068B0FBF3F001F019F968B950
:102228000F2C01D901200AE0002221464FF0FF308F
:1022380001F0C8F8044B1C60002000E0012010BD2C
:1022480000000020080000200400002010B5032032
:1022580001F0A6F80F20FFF7D1FF10B101242046A6
:1022680010BD0446FEF7D8FCF9E70000034A1368DE
:10227800034909680B441360704700BFD00200206F
:1022880000000020014B1868704700BFD0020020F2
:10229800124BDA6802F00302D868C0F30310431C3B
:1022A800032A11D00E48B0FBF3F00C4BDB68C3F3E4
:1022B800062303FB00F0094BDB68C3F341630133DA
:1022C8005B00B0FBF3F070470648B0FBF3F0034B3C
:1022D800DB68C3F3062303FB00F0ECE700100240C1
:1022E8000024F40000127A00002800F04F8270B534
:1022F80082B00446036813F0010F37D0A44A9368EC
:1023080003F00C03D26802F003020C2B23D0082B35
:1023180023D06368B3F5803F4ED0B3F5A02F51D0DA
:102328009B4B1A6822F480321A601A6822F48022C1
:102338001A606368002B52D0FFF7A4FF0546944B40
:102348001B6813F4003F11D1FFF79CFF401B642862
:10235800F5D9032023E2032AD9D18D4B1B6813F446
:10236800003F03D06368002B00F01282236813F04B
:10237800020F5DD0864A936803F00C03D26802F01E
:1023880003020C2B3AD0042B3AD0E368002B75D00B
:102398007F4A136843F480731360FFF773FF0546A1
:1023A8007B4B1B6813F4806F5FD1FFF76BFF401BFB
:1023B8000228F5D90320F2E1754A136843F4803303
:1023C8001360B6E703F18043A3F53C331A6842F47F
:1023D80080221A601A6842F480321A60A9E7FFF76F
:1023E80051FF05466A4B1B6813F4003FBED0FFF748
:1023F80049FF401B6428F5D90320D0E1022AC2D145
:10240800634B1B6813F4806F03D0E368002B00F064
:10241800C1815F4A536823F0FE43216943EA01639F
:1024280053605C4B1868FFF7E9FE002840F0B48160
:10243800236813F0080F4CD063699BB3544AD2F851
:10244800943043F00103C2F89430FFF71BFF0546B0
:102458004F4BD3F8943013F0020F3AD1FFF712FF25
:10246800401B0228F4D9032099E1494A536823F014
:10247800FE43216943EA01635360D9E7444A13687C
:1024880023F480731360FFF7FDFE0546404B1B687D
:1024980013F4806FCCD0FFF7F5FE401B0228F5D966
:1024A80003207CE13A4AD2F8943023F00103C2F8C1
:1024B8009430FFF7E7FE0546354BD3F8943013F018
:1024C800020F06D0FFF7DEFE401B0228F4D90320D6
:1024D80065E1236813F0040F00F081802C4B9B6D9D
:1024E80013F0805F36D12A4B9A6D42F080529A657C
:1024F8009B6D03F080530193019B0125264B1B68BC
:1025080013F4807F28D0A368012B39D0052B45D040
:102518001F4BD3F8902022F00102C3F89020D3F883
:10252800902022F00402C3F89020A368002B43D027
:10253800FFF7A8FE0646164BD3F8903013F0020FAB
:102548004CD1FFF79FFE801B41F288339842F2D9A5
:10255800032024E10025D1E70F4A136843F4807370
:102568001360FFF78FFE06460B4B1B6813F4807F42
:10257800C9D1FFF787FE801B0228F5D903200EE199
:10258800034AD2F8903043F00103C2F89030CCE708
:10259800001002400400002000700040884BD3F86F
:1025A800902042F00402C3F89020D3F8902042F023
:1025B8000102C3F89020B8E7FFF764FE0646804B97
:1025C800D3F8903013F0020F08D0FFF75BFE801BA2
:1025D80041F288339842F2D90320E0E0E5B9236854
:1025E80013F0200F35D0A369E3B1754AD2F89830BB
:1025F80043F00103C2F89830FFF744FE0546704BDC
:10260800D3F8983013F0020F23D1FFF73BFE401B9D
:102618000228F4D90320C2E0694A936D23F080535D
:102628009365DCE7664AD2F8983023F00103C2F8D4
:102638009830FFF727FE0546614BD3F8983013F022
:10264800020F06D0FFF71EFE401B0228F4D9032014
:10265800A5E0E369002B00F0A180594A926802F0D6
:102668000C020C2A64D0022B13D0554A136823F0AD
:1026780080731360FFF706FE0446514B1B6813F086
:10268800007F4ED0FFF7FEFD001B0228F5D903207E
:1026980085E04B4A136823F080731360FFF7F2FD5F
:1026A8000546474B1B6813F0007F06D0FFF7EAFD8D
:1026B800401B0228F5D9032071E0414AD3684149FB
:1026C8001940236A606A013843EA0013A06A43EAA2
:1026D8000023206B4008013843EA4053606B4008F0
:1026E800013843EA4063E06A43EAC0630B43D360BE
:1026F800136843F080731360D36843F08073D3602A
:10270800FFF7C0FD04462E4B1B6813F0007F06D16F
:10271800FFF7B8FD001B0228F5D903203FE0002091
:102728003DE0274AD168284B0B40D360002036E0B3
:10273800012B36D0224BDB6803F00301226A914259
:1027480031D103F0F002616A0139B2EB011F2CD1DB
:1027580003F4FE42A16AB2EB012F28D103F07842BC
:10276800E16AB2EBC16F24D103F4C001226B5208B5
:10277800013AB1EB425F1ED103F0C063626B5208AD
:10278800013AB3EB426F18D1002008E001207047EE
:10279800012004E0012002E0012000E0002002B056
:1027A80070BD0120FBE70120F9E70120F7E70120D0
:1027B800F5E70120F3E70120F1E70120EFE700BF8B
:1027C800001002400C809F01FCFFEEFE1E4B9B6830
:1027D80003F00C03042B33D01B4B9B6803F00C0352
:1027E800082B2FD0184B9B6803F00C030C2B01D03F
:1027F80000207047144BDA6802F00302D868C0F36F
:102808000310431C032A11D01048B0FBF3F00E4B01
:10281800DB68C3F3062303FB00F00B4BDB68C3F351
:10282800416301335B00B0FBF3F070470848B0FB2D
:10283800F3F0054BDB68C3F3062303FB00F0ECE77A
:102848000248704702487047001002400024F40014
:1028580000127A00002800F0E680F8B50C4605461C
:10286800744B1B6803F00F038B420BD2714A136839
:1028780023F00F030B431360136803F00F038B421D
:1028880040F0D3802E6816F001065FD06B68032BEA
:102898002FD0022B4DD0684B1B6813F4806F00F0CB
:1028A800C680FFF793FF654B98424DD9624A9368FB
:1028B80023F0F00343F08003936080265E4A936818
:1028C80023F0030369680B439360FFF7DBFC0746BB
:1028D800594B9B6803F00C036A68B3EB820F35D041
:1028E800FFF7D0FCC01B41F288339842F0D903208F
:1028F80078E0514B1B6813F0007F01D1012071E093
:10290800FFF7C6FC4D4B98421AD94B4B9B6813F006
:10291800F00F05D02E6816F00206CFD0AB688BB941
:10292800454A936823F0F00343F0800393608026C0
:10293800C4E7414B1B6813F4003FB2D1012051E0BA
:102948000026BBE70026B9E70026B7E72B6813F097
:10295800020F48D013F0040F04D0374A936843F4A9
:10296800E06393602B6813F0080F06D0324A93682F
:1029780023F47C5343F4E06393602F4A936823F075
:10298800F003A9680B4393602A4B1B6803F00F03FD
:10299800A34230D82B6813F0040F06D0264A936858
:1029A80023F4E063E9680B4393602B6813F0080F86
:1029B80007D0214A936823F46053296943EAC10385
:1029C8009360FFF703FF1C4B9B68C3F303131C4A78
:1029D800D35C03F01F03D8401A4B18601A4B1868D1
:1029E800FFF70CFCF8BD802ECED1134A936823F074
:1029F800F0039360C8E70F4A136823F00F032343DB
:102A08001360FFF73FFC06460A4B1B6803F00F03F1
:102A1800A342BFD0FFF736FC801B41F288339842AF
:102A2800F2D90320DEE7012070470120DAE7012010
:102A3800D8E700BF002002400010024000B4C404E0
:102A4800583500080800002004000020F0B583B0C5
:102A58000446036813F4002F6ED0354B9B6D13F0BA
:102A6800805F1ED1324B9A6D42F080529A659B6D01
:102A780003F080530193019B01262E4A136843F407
:102A880080731360FFF7FEFB05462A4B1B6813F49F
:102A9800807F08D1FFF7F6FB401B0228F5D90325F4
:102AA80002E00026E9E7002545BB214BD3F890302A
:102AB80013F4407315D0226D9A4212D01C4AD2F8F2
:102AC800903023F44073D2F8901041F48031C2F86A
:102AD8009010D2F8901021F48031C2F89010C2F80A
:102AE800903013F0010F10D145B9114AD2F8903047
:102AF80023F44073216D0B43C2F89030EEB10C4AB9
:102B0800936D23F08053936517E0FFF7BBFB0746EF
:102B1800074BD3F8903013F0020FE5D1FFF7B2FB63
:102B2800C01B41F288339842F2D90325DCE700BF85
:102B380000100240007000400025236813F0010FC8
:102B480008D09F4AD2F8883023F0030361680B430A
:102B5800C2F88830236813F0020F08D0984AD2F8D8
:102B6800883023F00C03A1680B43C2F8883023682F
:102B780013F0040F08D0924AD2F8883023F03003BB
:102B8800E1680B43C2F88830236813F0080F08D0B7
:102B98008B4AD2F8883023F0C00321690B43C2F86E
:102BA8008830236813F0100F08D0854AD2F888308F
:102BB80023F4407361690B43C2F88830236813F02B
:102BC800200F08D07E4AD2F8883023F44063A169E8
:102BD8000B43C2F88830236813F0400F08D0784AB6
:102BE800D2F8883023F44053E1690B43C2F88830A7
:102BF800236813F0800F08D0714AD2F8883023F484
:102C08004043216A0B43C2F88830236813F4807F5D
:102C180008D06B4AD2F8883023F44033616A0B43FA
:102C2800C2F88830236813F4003F08D0644AD2F809
:102C38009C3023F00303A16A0B43C2F89C3023683D
:102C480013F4007F08D05E4AD2F8883023F440237A
:102C5800E16A0B43C2F88830236813F4806F0CD004
:102C6800574AD2F8883023F44013216B0B43C2F83B
:102C78008830236BB3F5801F79D0236813F4006F75
:102C88000CD04F4AD2F8883023F44003616B0B43D1
:102C9800C2F88830636BB3F5800F6DD0236813F4E6
:102CA800805F0CD0464AD2F8883023F04073A16B7D
:102CB8000B43C2F88830A36BB3F1807F61D02368DF
:102CC80013F4005F0CD03E4AD2F8883023F04063FA
:102CD800E16B0B43C2F88830E36BB3F1006F55D05A
:102CE800236813F4804F0CD0354AD2F8883023F08B
:102CF8004063216C0B43C2F88830236CB3F1006F3A
:102D080049D0236813F4004F0CD02D4AD2F88830EC
:102D180023F04053616C0B43C2F88830636CB3F105
:102D2800805F3DD0236813F4803F0CD0244AD2F84A
:102D3800883023F04043A16C0B43C2F88830A36C61
:102D4800B3F1804F31D0236813F4802F0CD01C4A84
:102D5800D2F89C3023F44013E16C0B43C2F89C304A
:102D6800E36CB3F5001F25D0284603B0F0BDD36847
:102D780043F48013D36080E7D36843F48013D360AF
:102D88008CE7D36843F48013D36098E7D36843F49F
:102D98008013D360A4E7D36843F48013D360B0E70B
:102DA800D36843F48033D360BCE7D36843F48033FB
:102DB800D360C8E7D36843F48013D360D4E700BF77
:102DC80000100240F0B583B0002362E085685E0021
:102DD8000324B44025EA0405CC68B4402C4384603D
:102DE800446824EA0C0C4C68C4F300149C4044EA80
:102DF8000C0444605EE0DD08083550F8256003F0F7
:102E080007044FEA840C0F2404FA0CF426EA040E93
:102E18000C6904FA0CF444EA0E0440F8254060E01A
:102E2800052400E0002404FA0EF42C430CF1020CF3
:102E3800554D45F82C40554CA568D44325EA020663
:102E48004F6817F4801F01D042EA05064F4DAE6067
:102E5800ED6804EA05064F6817F4001F01D042EA3E
:102E680005064A4DEE606D6804EA05064F6817F4DA
:102E7800003F01D042EA0506444D6E602D682C40A3
:102E88004E6816F4803F01D042EA05043F4A1460B8
:102E980001330A6832FA03F474D04FF0010C0CFACB
:102EA80003FC1CEA0202F3D04C6804F00304013C62
:102EB800012C8BD94C6804F00304032C0CD0C46893
:102EC8005D004FF0030C0CFA05FC24EA0C0C8C682E
:102ED800AC4044EA0C04C4604C6804F00304022CBF
:102EE80089D004684FEA430E4FF0030C0CFA0EFC2D
:102EF80024EA0C0C4C6804F0030404FA0EF444EAC7
:102F08000C0404604C6814F4403FC1D0204C256E7A
:102F180045F001052566246E04F001040194019C26
:102F28004FEA930C0CF10205174C54F8255003F0A6
:102F380003044FEA840E0F2404FA0EF425EA04056C
:102F4800B0F1904F3FF46EAF124CA04212D004F58E
:102F58008064A04210D004F58064A0420ED004F52D
:102F68008064A0420CD004F58064A0423FF458AFBE
:102F7800062458E7012456E7022454E7032452E7BD
:102F8800042450E703B0F0BD0000014000040140F4
:102F980000100240000400480AB181617047816254
:102FA800704730B4C46C056D6560446D14B1846DB0
:102FB800C56D6560446C04F01F0C012404FA0CF420
:102FC800056C6C60046863608368102B05D0036827
:102FD80099600368DA6030BC704703689A600368D8
:102FE800D960F8E703680C4A934213D80B49DBB25F
:102FF800083B0B4AA2FB0323426C22F003020A445B
:103008008264084AC264C3F30413012202FA03F378
:10301800036570470449EAE70704024000080240D4
:10302800CDCCCCCC80080240200802400379074A66
:103038001A4492004265064A8265013B03F01F0369
:10304800012202FA03F3C365704700BF3F820010F4
:103058004009024000285BD010B5044601682D4B9A
:1030680099423DD82C4B0B442C4AA2FB03231B0945
:103078009B0043642A4B0364022384F825300A68C2
:1030880022F4FF4222F07002A368E068034320693B
:10309800034360690343A0690343E0690343206A6B
:1030A800034313430B602046FFF79CFFA368B3F567
:1030B800804F20D0A36C22791A60E36C226D5A608D
:1030C8006368013B032B19D900236365A365E36596
:1030D8000020E063012384F8253084F8240010BD23
:1030E800104B0B440D4AA2FB03231B099B004364AE
:1030F8000D4B0364C0E700236360DBE72046FFF75E
:1031080095FF636D00221A60A36DE26D5A60DFE7D8
:103118000120704707040240F8FFFDBFCDCCCCCC9E
:1031280000000240F8FBFDBF0004024038B5044629
:1031380090F82400012841D0012084F8240094F854
:103148002500C0B2012804D0002384F824300220CE
:1031580038BD022084F825000020E063256828682F
:1031680020F0010028602046FFF71BFF236BD3B136
:103178002268136843F00E031360A36C1A6812F4F4
:10318800803F03D01A6842F480721A60636D1BB1E5
:103198001A6842F480721A602268136843F00103C7
:1031A80013600020D4E72268136823F00403136037
:1031B8002268136843F00A031360DEE70220C7E7BA
:1031C80038B5036C196804682568436C03F01F035D
:1031D80004229A400A4215D015F0040F12D0236831
:1031E80013F0200F03D1236823F004032360436CFA
:1031F80003F01F02016C042393404B60036B03B17F
:10320800984738BD02229A400A421CD015F0020F96
:1032180019D0236813F0200F06D1236823F00A037E
:103228002360012380F82530436C03F01F02016CF2
:10323800022393404B60002380F82430C36A002B9C
:10324800DFD09847DDE7082202FA03F30B42D8D013
:1032580015F0080FD5D0236823F00E032360436CC4
:1032680003F01F03016C012202FA03F34B60C263EF
:1032780080F82520002380F82430436B002BC0D031
:103288009847BEE7002836D13E4B1B6803F4C0635D
:10329800B3F5806F08D03B4AD2F8803023F48073AE
:1032A800C2F8803000207047364AD2F8803023F4C4
:1032B8008073C2F88030136823F4C06343F400734A
:1032C8001360314B1B68322202FB03F32F4AA2FB27
:1032D80003239B0C013300E0013B2A4A526912F494
:1032E800806F01D0002BF7D1264B5B6913F4806FF8
:1032F80044D100207047B0F5007F08D0214A1368F8
:1033080023F4C06343F480631360002070471D4BAF
:103318001B6803F4C063B3F5806F08D0194AD2F86C
:10332800803043F48073C2F8803000207047154A1B
:10333800D2F8803043F48073C2F88030136823F4E5
:10334800C06343F4007313600F4B1B68322202FB07
:1033580003F30E4AA2FB03239B0C013300E0013B5D
:10336800084A526912F4806F01D0002BF7D1054B3F
:103378005B6913F4806F03D1002070470320704706
:1033880003207047007000400800002083DE1B43C4
:10339800024A936843F4804393607047007000408A
:1033A800074AD36823F4E0631B041B0C000200F4F3
:1033B800E060034343F0BF6343F40033D3607047D6
:1033C80000ED00E000B5194BDB68C3F30223C3F13D
:1033D800070CBCF1040F28BF4FF0040C03F1040ED6
:1033E800BEF1060F18D9033B4FF0FF3E0EFA0CFC56
:1033F80021EA0C0199400EFA03F322EA0303194368
:1034080000280BDB0901C9B200F1604000F56140FA
:1034180080F800135DF804FB0023E5E700F00F00D7
:103428000901C9B2024B1954F4E700BF00ED00E0EE
:1034380014ED00E0002807DB00F01F02400901231B
:103448009340024A42F82030704700BF00E100E094
:103458000138B0F1807F0BD24FF0E0235861054A64
:10346800F02182F823100020986107221A61704722
:103478000120704700ED00E0034AD2F8883043F499
:103488007003C2F88830704700ED00E00D488546AB
:10349800FFF7F2FF0C480D490D4A002302E0D4580B
:1034A800C4500433C4188C42F9D30A4A0A4C002386
:1034B80001E013600432A242FBD300F011F8FCF7DC
:1034C800E3FEFEE700000220000000200C000020C0
:1034D800703500080C000020D4020020FEE7000030
:1034E80070B50D4D0D4C641BA4100026A64209D1E1
:1034F8000B4D0C4C00F020F8641BA4100026A642CB
:1035080005D170BD55F8043B98470136EEE755F8EC
:10351800043B98470136F2E768350008683500082B
:10352800683500086C35000802440346934200D110
:10353800704703F8011BF9E7F8B500BFF8BC08BCF1
:103548009E467047F8B500BFF8BC08BC9E46704759
:10355800000000000000000001020304060708093B
:04356800FD01000859
:04356C00D901000879
:0C35700001000000100000000024F40026
:040000050800349526
:00000001FF
